:020000040800F2
:1000000000000224F9620208D15B0008D95B0008F5
:10001000E15B0008E95B0008F15B000800000000FC
:1000200000000000000000000000000001B5010811
:10003000F95B00080000000051B70108C9AD0108D4
:1000400049630208496302084963020849630208D8
:1000500049630208496302084963020849630208C8
:10006000496302084963020849630208095C000801
:100070001D5C0008315C0008455C0008595C000804
:100080006D5C0008815C000849630208955C00080B
:10009000A95C0008BD5C0008D15C00084963020847
:1000A0004963020849630208496302084963020878
:1000B0004963020849630208496302084963020868
:1000C0004963020849630208496302084963020858
:1000D000E55C0008F95C00080D5D0008215D000882
:1000E000496302084963020800000000355D00080A
:1000F000495D00085D5D000849630208715D000804
:100100004963020849630208496302084963020817
:1001100049630208855D00084963020849630208D3
:10012000995D0008AD5D0008C15D0008D55D00085F
:10013000E95D00084963020849630208496302084F
:1001400000000000000000000000000000000000AF
:1001500049630208496302084963020849630208C7
:1001600049630208496302084963020849630208B7
:1001700049630208FD5D00084963020800000000B1
:100180004963020849630208115E000849630208D6
:100190004963020849630208496302084963020887
:1001A000496302084963020849630208000000002D
:1001B0004963020849630208496302084963020867
:1001C00049630208496302080000000000000000C3
:1001D0000000000000000000496302080000000069
:1001E000000000000000000000000000000000000F
:1001F0000000000000000000496302084963020893
:1002000049630208496302080000000049630208CC
:100210004963020849630208496302084963020806
:100220004963020800000000496302080000000062
:10023000496302084963020800000000496302089C
:1002400049630208496302084963020849630208D6
:1002500049630208496302084963020849630208C6
:1002600049630208496302084963020849630208B6
:10027000496302084963020849630208000000005C
:100280004963020849630208496302084963020896
:1002900000000000496302084963020800000000F2
:1002A000000000004963020849630208496302082C
:1002B000255E00084963020849630208395E0008A8
:0C02C0004D5E0008615E00084963020802
:10030000024B0146186800F02FB800BF1C00002403
:10031000024B0146186802F0DFB900BF1C00002440
:1003200070B5104E336805460C46B3B121462846D9
:1003300001F0F6F8431C0CD0C41C24F00304A042C6
:1003400005D0211A284601F0EBF8013001D02046F3
:1003500070BD4FF0FF34204670BD194601F0E0F843
:100360003060E3E7200300242DE9F843CD1C25F09D
:10037000030508350C2D38BF0C25002D064618DB6B
:10038000A94216D8DFF8DC8000F06EF8D8F8042017
:10039000A2B1144603E0636822467BB11C46236881
:1003A0005B1BF8D40B2B1FD89442636854D0536066
:1003B0000CE00C2333600020BDE8F883294630466A
:1003C000FFF7AEFF431C044619D00560304600F02D
:1003D00051F804F10B00231D20F00700C21A1CBFC6
:1003E0001B1AA350BDE8F88361199442256014BF1D
:1003F0005160C8F80410635163684B60E6E7D8F8B1
:1004000004701FB33C467F68002FFBD12368394638
:10041000304604EB030901F083F8814516D12368C7
:10042000ED1A29463046FFF77BFF01300ED02368D6
:10043000D8F804202B442360536883B1A34203D02F
:100440001A465B689C42FBD10023B0E70C23336063
:10045000304600F00FF8AEE7C8F80430B6E7C8F849
:100460000470B3E720030024014801F0B9B800BFCD
:1004700078040024014801F0BBB800BF78040024D0
:10048000F0B52DED028BB0EE408B85B0174618EE1F
:10049000902A0D9E0C9D002AB6BF2D220022B1EE9F
:1004A000408B652E0C461A7030D032DC452E2DD094
:1004B000462E4AD1032103AB019302AB009322469F
:1004C0002B46B0EE480B01F09DFA26F02006462E92
:1004D00000EB040C04D10378302B2DD02C68A444FD
:1004E000B5EE408BF1EE10FA2DD0039B9C4506D95A
:1004F00030215A1C03921970039B6345F9D30E9A5D
:100500001B1A136005B0BDEC028BF0BD0134022153
:10051000D1E7662ECED0B0EE480B03AB019302AB11
:1005200000930A462B46022101F06CFA672ECCD1CB
:10053000FB0719D4039BE2E7B5EE408BF1EE10FA0E
:1005400015D12B689C446346D9E703AB019302ABFA
:1005500000930A462B460221B0EE480B01F052FAF6
:10056000472EB2D1FB07E5D500EB040CB8E7C4F188
:1005700001042C60B3E700BF70B50029BABF49423F
:100580002D232B23092982B0027043702BDD0DF13E
:100590000704194DA446A5FB0123DB0803EB8302E6
:1005A000A1EB42028E463032BEF1630F66460CF874
:1005B000012C19460CF1FF3CEDDCB31E3031A34297
:1005C0000CF8011C00F102050AD2421C13F8011BB1
:1005D00002F8011FA342F9D10DF109039B1B1D4431
:1005E000281A02B070BD30231944051D8370C170F4
:1005F000281A02B070BD00BFCDCCCCCC2DE9F04F95
:100600008DB00C46DDF858A016461F46054600F092
:1006100041FFD0F80090484601F0F2F800230A9319
:10062000DAF800300690073323F0070393ED000B50
:100630009FEDA77BB0EEC06B0833B4EE476BF1EED5
:1006400010FA226894F81880CAF8003084ED120B72
:100650006ADCB4EE400BF1EE10FA80F121826168A1
:100660004B1C42F4806208F0DF0A30D0BAF1470F29
:1006700000F011810023226003930AAB029309ABBF
:100680000093CDF804800DF123032846FFF7F8FE10
:100690000590B8F1650F099935D9B8F1660F00F0EA
:1006A00021810A9B8B4240F328810029D4BFC1F1EC
:1006B0000202012213442361A1654FF0000A9DF854
:1006C0002330002B46D02D2384F8433042E006210E
:1006D00000232260CDF80480616003930AAB02938B
:1006E00009AB009328460DF12303FFF7C9FEBAF1C9
:1006F000470F0590CDD10999C81C80F2E280A8F17E
:1007000002085FFA88F80139424604F15000099165
:10071000FFF732FF0A9A1318012A8246236140F339
:10072000328101332361CAE7B5EEC00BF1EE10FA56
:1007300002D52D2384F8433022F004022260664B58
:10074000664AB8F1470F98BF1A4603230592236102
:100750004FF0000A009733460BAA2146284600F0C6
:10076000B7F9013023D0236858052BD4059A2369A3
:1007700031462846B847013019D02268E0680B9B03
:10078000920719D5984217DD4FF0000804F11909B6
:1007900004E0E0680B9BC21A42450DDD01234A4686
:1007A00031462846B847013008F10108F1D14FF031
:1007B000FF300DB0BDE8F08F9842B8BF18460DB0BD
:1007C000BDE8F08FB8F1650F32D994ED127BB5EE2C
:1007D000407BF1EE10FA40F09880414A0123314607
:1007E0002846B8470130E2D0DDE9093A534502DB3B
:1007F0002268D107C2D5069B4A4631462846B847EB
:100800000130D4D0BAF1010FB7DD0AF1FF3A4FF051
:10081000000904F11A0801E0D145AED00123424697
:1008200031462846B847013009F10109F4D1BEE745
:10083000DDF82880B8F1010F40F39680059A012376
:1008400031462846B8470130B1D0069B4A4631466A
:100850002846B8470130AAD094ED127BB5EE407B14
:10086000F1EE10FA08F1FF3B40F09280B8F1010F71
:1008700040F385804FF0000904F11A0801E0D945E2
:100880007DD00123424631462846B847013009F160
:100890000109F4D18BE709B90121616000232260CD
:1008A00003930AAB029309AB0093CDF804800DF1DA
:1008B00023032846FFF7E4FD09990590C81CFFF6BD
:1008C0001EAF636899423FF71AAF4FF06708E8E63A
:1008D000FFFFFFFFFFFFEF7FBC7D0208C07D020826
:1008E000CC7D02080029636856DD2161002B00F0F1
:1008F000858001330B442361DEE623682161DB0739
:100900007FF5DAAE4B1C2361D6E6099B002B4ADD4E
:100910000A9BD4F858B007935B45A8BF5B46002BF1
:10092000984608DD059A31462846B84701303FF41D
:100930003EAFD4F858B028EAE87293456BDD4FF02B
:10094000000A04F11A08934604E0A36DA3EB0B021E
:1009500052455FDD0123424631462846B847013003
:100960000AF1010AF1D122E7D9073FF567AF059AED
:10097000012331462846B84701303FF418AF5346AB
:1009800004F15002F4E62268D2077FF598AEC8E67B
:10099000059A5B460132ECE7002B34D12268D2077E
:1009A00031D4012387E6474A012331462846B84718
:1009B00001303FF4FCAEDDE9093A5AEA030324D0E2
:1009C000069B4A4631462846B84701303FF4EFAE11
:1009D000099B002B72DA4FF0000904F11A0803E0BA
:1009E000099B5B424B4569DD01234246314628465F
:1009F000B847013009F10109F2D1D8E62268D007E1
:100A00007FF55AAE75E7023355E62268D3077FF5C6
:100A1000B5AED5E79B46099B079A9A4202DC22684D
:100A2000D00708D5069B4A4631462846B8470130CC
:100A30003FF4BDAE099B079AA2EB0B0AD31A9A4565
:100A4000A8BF9A46BAF1000F0CDD059B5B441A461D
:100A5000314653462846B84701303FF4A8AE099BBB
:100A6000079AD31A2AEAEA7A53457FF786AEDDF869
:100A70001CB04FF0000904F11A0807E0099BABEB2A
:100A80000303A3EB0A034B457FF777AE01234246EE
:100A900031462846B847013009F10109EED186E612
:100AA00010EE903A002BB8BF2D2322F00402B8BFFD
:100AB00084F843302260044B044A42E6059A5346C8
:100AC00056E600BFCC7D0208C47D0208C87D02083E
:100AD0002DE9F84F92461F460A698B68DDF8289089
:100AE0009A42B8BF1A46CAF8002091F843300C4623
:100AF000064613B10132CAF80020226891065FD57C
:100B0000DAF800300233CAF80030226812F0060F1B
:100B100011461DD1E1689942D8BF114618DD4FF04A
:100B2000000804F1190B05E0E568DAF80030ED1A69
:100B300045450CDD01235A4639463046C847013049
:100B400008F10108F0D14FF0FF30BDE8F88F2168BF
:100B500094F84330003B18BF01238A060AD5E118F8
:100B60005A1C302081F84300224494F8451082F842
:100B70004310023304F1430239463046C84701307E
:100B8000E1D02368DAF80050216903F00603042B52
:100B9000D4E902201BD08A4220DD4FF00008521A0F
:100BA00090441A34002501E0454517DA0123224616
:100BB00039463046C847013005F10105F4D1C2E796
:100BC00012F0060F0DD0003B18BF0123D2E7401BE7
:100BD0008A4220EAE078E2DC0028E2DC0020BDE87E
:100BE000F88FE168DAF800309942D8BF114696DCF8
:100BF000AEE700BF2DE9F047174684B00A7E0C9D92
:100C00000C460646984601F1430C002A35D0A2F165
:100C10005803D9B2202969D8202B67D8DFE813F010
:100C2000E600660066006600660066006600660014
:100C3000660066006600AC00700066006600660034
:100C40006600700066006600660066002100830092
:100C5000C60066006600B600660083006600660097
:100C6000EC002B6822686169181D286010061B685B
:100C700002D4520600F1E08019600023E1462361AE
:100C8000CDF800803B4603AA21463046FFF720FFFF
:100C9000013020D023694A4639463046C0470130EA
:100CA00019D02368E068DDF80C909B0718D54845FB
:100CB00016DD002504F1190A04E0E068A0EB090341
:100CC000AB420DDD0123524639463046C047013064
:100CD00005F10105F1D14FF0FF3004B0BDE8F08718
:100CE0004845B8BF484604B0BDE8F08784F84220C4
:100CF000012004F142090023206184F84330BFE75A
:100D00002A682368111D1806296002D4590600F1CB
:100D100095801068014600286268C0F293805448AC
:100D20004FF00A0E15E020682B6810F0800F53F882
:100D3000041B02D1400648BF89B26F2A4C482B6081
:100D400014BF4FF00A0E4FF0080E0023626884F8BB
:100D50004330002AA26051DB236823F004032360A0
:100D600000294BD1002A7BD1E146BEF1080F56D0B5
:100D7000ACEB0903236183E72B681A6804332B600B
:100D800004F1420984F842200120B4E72B6862682C
:100D9000191D2960D3F800900021484600F030FC6E
:100DA000002863D0A0EB09006060A4E7236843F04B
:100DB0002003236078222F4884F845202A6813F006
:100DC000800F52F8041B03D113F0400F18BF89B2F3
:100DD0002A60DA0744BF43F02003236019B923686F
:100DE00023F0200323604FF0100EAEE7582384F861
:100DF00045301F482368E1E72368DBE77546E14695
:100E0000B1FBF5F305FB131A0A46AA4210F80A10C3
:100E100009F8011D1946F3D2BEF1080FA8D12368C5
:100E2000DD07A5D5626823699A42A1DC302309F861
:100E3000013C09F1FF399BE719801EE7B2F9001068
:100E4000084668E72D20002AA26084F8430002DBF0
:100E500023F0040323600A2505484942AE46CEE745
:100E6000037884F8423004F142097EE7606842E783
:100E7000D07D0208E47D0208024A0349034800F0DD
:100E800069B900BF100000241D37000820000024AD
:100E90000C4B4168994210B5044601D002F03EFC6B
:100EA000A168094B994202D0204602F037FCE16864
:100EB000064B994204D02046BDE8104002F02EBCFB
:100EC00010BD00BF2803002490030024F803002471
:100ED00008B54B6EDA0702D48B899B0501D500203B
:100EE00008BD886D00F07CFB002008BD08B54B6E86
:100EF000DA0702D48B899B0501D5002008BD886DD7
:100F000000F076FB002008BD2DE9F843314C324952
:100F1000DFF8D890DFF8D880304FC4F838110025BA
:100F200004232946082204F15C002D4EE360C4E945
:100F30000055C4E90455A5606566A56100F056FA40
:100F400004F15800C4E90849C4E90A87266300F09F
:100F50003FFB2946234B6367082204F1C400C4E920
:100F60001A55C4E91E552567C4F8CC50C4F8805002
:100F700000F03CFA04F1680304F1C000C4F88830C2
:100F8000C4E92398C4E9257600F022FB164BC4F887
:100F9000DC30294604F596700822C4E93455C4E9CA
:100FA0003855C4F8D850C4F83451C4F8E85000F0AB
:100FB0001DFA04F1D003C4E93E87C4F8F49004F5A7
:100FC0009470C4F80061C4F8F030BDE8F84300F054
:100FD000FFBA00BF28030024790E000801120008A0
:100FE00025120008090001001200020099110008F2
:100FF000C1110008F8B506462A4800F0F1FA2A4B5C
:10100000D3F83831002B43D0284FD7E90134013BC6
:1010100004D524E05A1C04F1680420D0B4F90C5023
:10102000013B002DF6D1224BE36004F158006566C8
:1010300000F0CEFA1B4800F0DBFAC4E90155C4E920
:10104000045508222560A561294604F15C0000F0E2
:10105000CDF9C4E90D55C4E912552046F8BD3D68E7
:101060000DB12F46D1E74FF4D6713046FFF77CF92A
:10107000044680B10423C0E900530C302946A06027
:101080004FF4D072254600F0B1F93C602F46BCE722
:10109000FFF73AFFB8E703483C6000F0A9FA0C23D9
:1010A0003360DAE7840400242803002410000024BD
:1010B0000100FFFF10B504460B4800F091FA236AC7
:1010C0002BB90A4B0A4AD3F83831226223B1BDE862
:1010D0001040054800F08CBAFFF716FFBDE810403D
:1010E000014800F085BA00BF8404002428030024CE
:1010F000910E0008014800F073BA00BF8404002478
:10110000014800F075BA00BF8404002408B5054802
:1011100000F066FABDE80840034A0449002000F0E8
:1011200019B800BF8404002410000024D10E000868
:1011300008B5054A0549002000F00CF8BDE8084054
:10114000034800F055BA00BF10000024ED0E00085F
:10115000840400242DE9F8430746884616464FF0DC
:101160000009D6E90154013D10D4A389012B08D907
:10117000B4F90E3001332146384602D0C04749EA5F
:101180000009013D6B1C04F16804EED13668002EA5
:10119000E7D14846BDE8F88310B50C46B1F90E100A
:1011A00000F0A8F9002803DB636D0344636510BDFC
:1011B000A38923F48053A38110BD00BF0020704792
:1011C0002DE9F0410C46B1F90C101F46CB05054640
:1011D00016460BD421F48051A1813B46B4F90E1080
:1011E00032462846BDE8F04100F0ACB9B4F90E1023
:1011F0000223002200F068F9B4F90C10EAE700BFFE
:1012000010B50C46B1F90E1000F05EF9B4F90C30CF
:10121000421C0EBF23F4805343F480536065A381C6
:1012200010BD00BFB1F90E1000F03CB9F8B50D4685
:101230001446064610B1036A002B37D0A389A26971
:10124000A2601A0719D52369BBB122686169D31A54
:10125000EDB299422F4620DD0133A1680139A1602A
:10126000511C2160157062699A420DD0A389DB0779
:1012700001D50A2D08D03846F8BD2146304600F089
:1012800025F838B92369E0E72146304602F046FAEE
:101290000028F0D04FF0FF37EDE72146304602F04E
:1012A0003DFA0028F6D122680123D6E7FFF702FFB6
:1012B000C4E700BF10B4044C03460A4620685DF83A
:1012C000044B1946FFF7B2BF1C00002438B52F4B62
:1012D0001B6805460C4613B11A6A002A4BD0B4F9B4
:1012E0000C3018071CD5226922B313F0010107D076
:1012F000616900204942A060A1613AB1002038BD77
:10130000980758BF6169A160002AF7D1190658BF34
:101310001046F4D543F04003A3814FF0FF3038BDB1
:10132000D9062CD55A0712D4226943F00803A381A9
:10133000002ADAD103F42071B1F5007FD5D021461F
:10134000284602F0ABFBB4F90C302269CDE7616BA3
:1013500051B104F14402914204D0284601F0BCF995
:10136000B4F90C300022626322690021C4E9002133
:1013700023F02403D9E71846FFF79CFEAFE70922C4
:1013800043F040032A60A381C7E700BF1C0000248C
:10139000032A30B415D941EA0004A40784460B4659
:1013A00004D0541E0FE0043A032A08D919466046B7
:1013B00053F8044B5CF8045BA542F4D0F1E76046B7
:1013C0001946541E7AB1431E0139021901E09A42AE
:1013D00009D013F8010F11F801CF6045F7D0A0EB49
:1013E0000C0030BC7047002030BC7047830730B51C
:1013F00047D0541E002A3ED0CAB2034601E0013C49
:1014000039D303F8012B9D07F9D1032C2CD9CDB288
:1014100005EB05250F2C05EB054535D9A4F1100288
:1014200022F00F0C03F1100EE6444FEA121C1A468C
:10143000C2E90055C2E9025510327245F8D10CF1EB
:10144000010214F00C0F03EB021204F00F0C13D086
:10145000ACF1040323F003030433134442F8045BA8
:101460009342FBD10CF003042CB1C9B21C4403F825
:10147000011BA342FBD130BD64461346002CF4D1BE
:10148000F9E703461446C0E71A46A446E0E700BF62
:10149000F0307047004870475C01002400487047F6
:1014A0005C01002438B5074D0022044608462A6036
:1014B0001AF0A6FA431C00D038BD2B68002BFBD0D5
:1014C000236038BD6404002438B50C46084D8446BA
:1014D000114620461A4600232B6064461AF0B7FADC
:1014E000431C00D038BD2B68002BFBD0236038BDD7
:1014F0006404002438B50C46084D84461146204645
:101500001A4600232B6064461AF041FA431C00D0AF
:1015100038BD2B68002BFBD0236038BD6404002449
:1015200038B5074D0022044608462A601AF0D6F95D
:10153000431C00D038BD2B68002BFBD0236038BD86
:101540006404002438B50C46084D844611462046F4
:101550001A4600232B6064461AF036FA431C00D06A
:1015600038BD2B68002BFBD0236038BD64040024F9
:10157000014B1868704700BF1C00002470B50F4B6A
:101580000F4DAB42A3EB050607D0B610002455F86B
:10159000043B01349847A642F9D825F05DF8094D7F
:1015A000094B5E1BAB424FEAA60606D0002455F855
:1015B000043B01349847A642F9D870BD247F020845
:1015C000247F0208247F0208287F0208704700BF9A
:1015D000704700BF704700BF704700BF704700BF33
:1015E000704700BF0120704701207047704700BF5F
:1015F000704700BF002202F083BB00BF0000000064
:1016000001F0FF01102A2BDB10F0070F08D010F8B3
:10161000013B013A8B422DD010F0070F42B3F6D1B7
:10162000F0B441EA012141EA014122F007047FF0D0
:1016300000070023F0E80256083C85EA010586EA27
:10164000010685FA47F5A3FA87F586FA47F6A5FA63
:1016500087F68EB9EED1F0BC01F0FF0102F007026F
:1016600032B110F8013B013A83EA010313B1F8D11A
:101670000020704701387047002D06BF35460338FB
:10168000073815F0010F07D1013015F4807F02BF34
:10169000013015F4C03F0130F0BC0138704700BF85
:1016A000844641EA000313F003036DD1403A41D36D
:1016B00051F8043B40F8043B51F8043B40F8043B2C
:1016C00051F8043B40F8043B51F8043B40F8043B1C
:1016D00051F8043B40F8043B51F8043B40F8043B0C
:1016E00051F8043B40F8043B51F8043B40F8043BFC
:1016F00051F8043B40F8043B51F8043B40F8043BEC
:1017000051F8043B40F8043B51F8043B40F8043BDB
:1017100051F8043B40F8043B51F8043B40F8043BCB
:1017200051F8043B40F8043B51F8043B40F8043BBB
:10173000403ABDD2303211D351F8043B40F8043B5B
:1017400051F8043B40F8043B51F8043B40F8043B9B
:1017500051F8043B40F8043B103AEDD20C3205D36B
:1017600051F8043B40F8043B043AF9D2043208D063
:10177000D2071CBF11F8013B00F8013B01D30B88D5
:1017800003806046704700BF082A13D38B078DD0B3
:1017900010F003038AD0C3F10403D21ADB071CBF85
:1017A00011F8013B00F8013B80D331F8023B20F8EF
:1017B000023B7BE7043AD9D3013A11F8013B00F828
:1017C000013BF9D20B7803704B7843708B788370B0
:1017D00060467047000000000000000000000000AC
:1017E00000000000000000000000000000000000F9
:1017F00000000000000000000000000000000000E9
:1018000030B490F800F020F007016FF0000C10F0F9
:10181000070491F820F040F048804FF000046FF08A
:101820000700D1E9002391F840F000F1080082FAA6
:101830004CF2A4FA8CF283FA4CF3A2FA8CF34BBB71
:10184000D1E9022382FA4CF200F10800A4FA8CF2EA
:1018500083FA4CF3A2FA8CF3E3B9D1E9042382FAB8
:101860004CF200F10800A4FA8CF283FA4CF3A2FACD
:101870008CF37BB9D1E9062301F1200182FA4CF205
:1018800000F10800A4FA8CF283FA4CF3A2FA8CF36C
:10189000002BC6D0002A04BF04301A4612BAB2FA8E
:1018A00082F200EBD20030BC7047D1E9002304F093
:1018B0000305C4F100004FEAC50514F0040F91F8C8
:1018C00040F00CFA05F562EA05021CBF63EA050365
:1018D00062464FF00004AAE72DE9F04F03690C6956
:1018E000A34283B0C0F28A80013C01F1140500F1EB
:1018F000140855F8243058F8242001339A428E46B3
:1019000081464FEA840105EB840708EB840AB2FBA9
:10191000F3F63AD3CDE900150022AC464046134613
:101920005CF8041B05681FFA81FB06FB0B22090CFF
:101930004FEA124B06FB01BB92B2A9B2891A1944B5
:101940001FFA8BF3C3EB214303EB154389B241EA42
:101950000341674540F8041B4FEA1B424FEA23430B
:10196000DED2DDE9001558F8013073B9AAF1040A96
:10197000D04504D307E0D04504F1FF3403D25AF830
:101980000439002BF7D0C9F810407146484601F0E1
:101990000FFA00282EDB4146002255F8040BD1F83F
:1019A00000C01FFA80FE1FFA8CF3A3EB0E03134452
:1019B000020CC2EB234202EB1C429BB243EA0243FD
:1019C000AF4241F8043B4FEA2242E6D258F82420C5
:1019D00008EB84036AB9043B434504D807E0984503
:1019E00004F1FF3403D253F80429002AF7D0C9F8D0
:1019F00010400136304603B0BDE8F08F002003B040
:101A0000BDE8F08F2DE9F04F2DED028BC56991B047
:101A10008DED040B57EC106B044602919046069333
:101A2000002D00F02383296849B16A684A600123C8
:101A300093408B6000F0EEFEE36900221A603D1EC9
:101A40001C9AB4BF0123002313606F4BBCBF25F069
:101A500000450595AB4300F09D809DED048BB5EEF0
:101A6000408BF1EE10FA0FD1069A012313601D9BF3
:101A700013B11D9A654B1360654B0393039811B026
:101A8000BDEC028BBDE8F08F0FA90EAA2046B0EE88
:101A9000480B01F0FBFA290D834640F09280DDE906
:101AA0000E01014401F23243202B40F30F83C3F1B6
:101AB00040039D4001F2124326FA03F32B4307EE45
:101AC000103AB8EE477B012317EE905A0A9301397A
:101AD00053EC172BA5F1F8739FED453B9FED467B2B
:101AE0009FED475B06EE901A43EC122BB8EEE64BE7
:101AF000B7EE086B32EE466BA6EE037BA4EE057BD9
:101B0000FDEEC76BB5EEC07BF1EE10FA16EE905A03
:101B100008D5B8EEE66BB4EE476BF1EE10FA18BFDD
:101B200005F1FF35401A162D00F1FF3700F247810D
:101B3000384B03EBC50393ED007BB4EEC78BF1EE9E
:101B400010FA6DD50023002F05F1FF350B93C0F27D
:101B50003B8100230793002D68DA079B09955B1BE7
:101B60000793029B092BC5F100094FF0000564D8CB
:101B7000052BC5BF043B0293012300230193029B65
:101B8000023B032B00F27A85DFE813F0F403F10344
:101B9000E703CA03069AC5F3130542F20F733543F0
:101BA00013601ED11D9B002B00F05D851A4B039323
:101BB00008331D9A0398136011B0BDEC028BBDE889
:101BC000F08F18EE905A0023C5F313050A9353ECD7
:101BD000182B45F07F530E98A1F2FF3143F44013C8
:101BE0007AE71D9B002B40F07A830C4B039345E76B
:101BF00061436F63A787D23FB3C8608B288AC63F13
:101C0000FB799F501344D33F0000F07FCD7D020845
:101C1000CC7D020840720208F87D0208047E0208AA
:101C2000002840F3F58300230B930793029B09954B
:101C3000092B2F444FF000099AD901230022CDE946
:101C4000013208934FF0FF3A9046E369CDF830A097
:101C500000215960204600F09DFD0390002800F00F
:101C60001685E369039A1A60BAF10E0F00F2D2806A
:101C7000019B002B00F0CE800999002940F3CE8310
:101C8000914B01F00F0203EBC203CE0593ED007BF5
:101C90004FEA211340F18F838C4A92ED086B03F0D9
:101CA0000F03032188EE064B5BB1884AD80704D5A1
:101CB00092ED006B013127EE067B5B1002F108020A
:101CC000F4D184EE075B0B9B3BB1B7EE007BB4EE27
:101CD000C75BF1EE10FA00F1598407EE901AB8EEE6
:101CE000E76BB1EE0C7BA6EE057B17EE903A51EC5C
:101CF000170BA3F15071BAF1000F78D0099E53462B
:101D0000DFF8C4E1039AFDEEC56B41EC140B0EEB5A
:101D1000C30111ED023B16EE901A089830310132E2
:101D2000B8EEE67B5FFA81FC35EE477B1146002872
:101D300000F0E683B6EE006B86EE035B039935EEAA
:101D4000445BB4EEC75BF1EE10FA81F800C000F31B
:101D50001784B7EE002BB2EE044B002017E00130E1
:101D6000984257DA27EE047B25EE045BFDEEC76B45
:101D700016EE901AB8EEE63B303137EE437BB4EE08
:101D8000C57BF1EE10FA02F8011B00F1F98332EE87
:101D9000476BB4EEC56BF1EE10FAE0D5039813462D
:101DA000013602E0834200F01D841A4613F8011D3B
:101DB0003929F7D00131C9B21970374641E1012301
:101DC000002F0B93BFF6C5AEC0F1010307930027A8
:101DD000C1E607EE901AB1EE0C6BB8EEE77BA5EE0C
:101DE000076B16EE903A51EC160BA3F1507141ECD3
:101DF000160BB1EE047B35EE477BB4EEC67BF1EEFD
:101E000010FA00F3FD83B1EE466BB4EEC67BF1EE43
:101E100010FA1CD40F9B002B5ADB099A0E2A57DCB0
:101E2000294B099AB8F1000F03EBC20393ED006B45
:101E300014DABAF1000F11DC09D1B1EE047B26EE01
:101E4000077BB4EEC78BF1EE10FA00F2D9830023C2
:101E5000039A01931E466FEA080706E2039B591C8A
:101E600088EE067BBDEEC77B0B4617EE102A039962
:101E70003032BAF1010FB8EEC75B0A70A5EE468B9F
:101E800000F0F382B2EE044B012211E088EE067BF3
:101E9000BDEEC77B013217EE101A524501F1300139
:101EA000B8EEC75B03F8011BA5EE468B00F0DD82A0
:101EB00028EE048BB5EE408BF1EE10FAE6D1099FC7
:101EC0001A460137BDE000BF4072020830730208B5
:101ED000089A002A40F0E080079BCDF80490002685
:101EE00008960A930A9A5AB1002F09DDBA42079957
:101EF0001346A8BF3B46C91AD21A07910A92FF1A85
:101F0000B9F1000F0BD0089B1BB1019B002B40F0D7
:101F1000DF8259464A46204600F066FE834601218C
:101F2000204600F095FD0190002D40F0C481029BF9
:101F3000012B40F3D8810120384410F01F0000F03D
:101F4000A280C0F12003042B40F3E581079BC0F180
:101F50001C00034407930A9B03440A930744079B0E
:101F6000002B05DD59461A46204600F0ADFE83469B
:101F7000002F05DD01993A46204600F0A5FE0190AC
:101F80000B9B002B40F07C81BAF1000F40F3518194
:101F9000089B002B40F0AE80099F0137DDF80C80D4
:101FA000DDF80490012507E0594600230A22204667
:101FB00000F054FC0135834649465846FFF78CFC37
:101FC000AA4500F1300008F8010BEDDCBAF1000F72
:101FD000039BCCBF5546012503EB050A814600252E
:101FE00059460122204600F06FFE0199834600F019
:101FF000DFFE002840F3EE81039902E08A4500F0FD
:10200000028252460AF1FF3A12F8013C392BF5D010
:1020100001338AF8003001990292204600F0FAFB61
:10202000029A76B13DB1B54205D0294620460192CB
:1020300000F0F0FB019A01923146204600F0EAFBE5
:10204000019A01925946204600F0E4FB019A0023D0
:102050001370069B1F601D9B002B3FF40FAD039870
:102060001A6011B0BDEC028BBDE8F08F1020FEF7B6
:1020700047F90246E061002800F0F082C0E900550F
:10208000C0E90255DBE41C23079A1A4407920A9A16
:102090001A440A921F4462E7029A012A40F3A5817A
:1020A0000AF1FF329145C0F26F81A9EB0203BAF148
:1020B000000F019380F2AA82079BA3EB0A030A9305
:1020C0000121204600F0C4FC06460BE7C3F12003C3
:1020D00006FA03F307EE103AF3E4314600230A222E
:1020E000204600F0BBFB0C9B002B064640F3AC8265
:1020F00009979A460A9B002B00F33F81002D40F080
:10210000CB81B046039D6B1E53440A93049B03F09E
:1021100001030B9301995846FFF7DEFB31468246D7
:10212000584600F045FE019907464246204600F019
:1021300061FEC3680AF130090146ABBB08905846FE
:1021400000F036FE08990790204600F063FB079ADE
:10215000002A55D1029B1BB90B9B002B00F060821B
:10216000002F3FDB0A9BAA46AB420AF8019B00F016
:10217000AA81594600230A22204600F06FFB4645FB
:10218000834631464FF000034FF00A02204631D01B
:1021900000F064FB4146064600230A22204600F078
:1021A0005DFB55468046B5E7204600F033FB002F27
:1021B00006DB049B03F00102029B1F433A432AD132
:1021C00059460122204600F07FFD0199834600F028
:1021D000EFFD002840F3F380B9F1390F00F00682DB
:1021E0000AF131092A46099F02F8019B3546013759
:1021F000464610E700F032FB55460646804689E722
:10220000002FC0F25082029B1F430B9B1F4300F024
:102210004A82002AA6DDB9F1390F00F0E7812A468B
:10222000099F09F10103354602F8013B0137464693
:10223000F1E6029B022B7FF7ABAEBAF1000F40F044
:102240001281019953460522204600F007FB014602
:102250000190584600F0ACFD002840F30481039A39
:10226000099F312302F8013B013701990292204670
:1022700000F0D0FA0137029A002E7FF4DCAEE0E6DF
:102280000199584600F094FD0028BFF67DAE5946EE
:1022900000230A222046099F00F0E0FA089B013F34
:1022A0008346002B7FF419AF0C9B002B40F3BF81BA
:1022B000099F9A4672E601462A46204600F094FCA1
:1022C000029B0190012B6BDD0025019A136902EB43
:1022D0008303186900F06AFBC0F120002CE6BD4BB7
:1022E0000393033365E4049B002B7FF424AEDDE904
:1022F0000412C2F31303002B7FF41DAEB64B134040
:1023000023B1079B0133079301370123002D40F0D0
:102310007B811D460FE63FF422AEC0F13C03B3E6DD
:1023200001230893099B434403F1010A5646012EF9
:102330000C93B8BF0126172ED4F81CC040F2AE8112
:10234000012204235B0003F11400B042114602F1A4
:102350000102F7D9CCF804107CE401230893B8F10A
:10236000000F33DD4646CDF83080C246E3E7002358
:102370000893D7E700230893F1E731461A46204631
:1023800000F0A2FC0646B9E6A2EB09031D44079B38
:102390000A935344079300235744914601938FE6D1
:1023A000049B002B90D1DDE90401C1F313030A461D
:1023B000002B89D1A2E70221B0EE484B74E47FF4F0
:1023C00011AF19F0010F7FF407AF0BE74FF00108D1
:1023D000C2463AE403D119F0010F7FF40DAE524624
:1023E0001AF8013D302BFAD015E60A9A002A00F0BF
:1023F000C98003F23343079A0A921F44D318079304
:10240000CDF804905CE60399312301370B7002E6A6
:10241000C0F10103002707930B9707E400F0D58074
:10242000099B6E4A5B4203F00F0102EBC10292ED81
:10243000006B1B1128EE066BB0EE465B00F00B81C3
:10244000674A00200221DE0705D592ED007B0131AD
:10245000012025EE075B5B1002F10802F3D1002892
:1024600006FE055B2FE4039AF5E4099F38EE088B1E
:102470000137B4EEC68BF1EE10FA3E4608DCB4EE3E
:10248000468BF1EE10FA05D117EE102AD20701D5CE
:1024900003988AE41A46D4E57168204600F07AF978
:1024A0000546002800F0E380336902339A0006F104
:1024B0000C010C30FFF7F4F829460122204600F009
:1024C00003FC80461EE6099F35460137464687E5F0
:1024D0001A463146204600F087FB5A46014606461A
:1024E000204600F0CBFA59460D90204600F092F9B4
:1024F000019BB9EB03090D9B9B463FF410AD08E52A
:10250000039824EE033B012B80F800C000F09A8072
:10251000B2EE044B0398034427EE047BFDEEC76B39
:1025200016EE900A00F1300C02F801CB9342B8EE9F
:10253000E65B37EE457BEFD1B6EE006B33EE065B24
:10254000B4EEC57BF1EE10FA66DC36EE436BB4EE0A
:10255000C67BF1EE10FA0DD40F9B002BFFF6BCAC3E
:10256000099B0E2B3FF7B8AC099B0EEBC30090ED17
:10257000006B75E41A46013B12F8011C3029F9D0B2
:10258000771C5EE50E9BC3F1360334E7BAF1000F0A
:102590003FF41FAC0C9B002B7FF73CACB2EE044B1E
:1025A00025EE045B013107EE901A0999B8EEE76B4E
:1025B000B1EE0C7BA5EE067B17EE902A4E1E51EC79
:1025C000170BA2F15071FFF79BBB0221B0EE485BE5
:1025D000FFF779BB047E02080000F07F407202081A
:1025E0003073020801363121FFF7E6BBAA46099F86
:1025F0000399392335460AF8013B0137464600E581
:10260000002301931E462AE61D465EE6079B0A93B9
:1026100053445744079353E503980136FFF7C5BB6E
:10262000B9F1390FE2D0002F3FF7DAADDAE5029BBE
:10263000022B03DC099FDDF830A0AFE4DDF830A009
:102640000997FAE5134677E7029B022BF6DCDDF8E3
:1026500030A009974EE50221FFF735BB1A4B1B4806
:10266000EF2101F09BFB1A4B0393FFF707BA194BBD
:1026700016482A4640F2EF2101F090FBE36900265C
:102680005E603146204600F085F8039078B9114B22
:102690000E48002240F2AF1101F080FB0021CCF87F
:1026A0000410FFF7D7BA002A3FF78AAD9AE5E3692D
:1026B000039A1A604FF0FF330122B0460C93089240
:1026C0009A46FFF7A7BB00BF087E0208207E0208DB
:1026D000F87D02085C7E0208002950D038B551F818
:1026E000043C0C1F002BB8BFE4180546FDF7BCFEE8
:1026F000274A13682BB1A3420CD921686018834282
:102700002CD0636028461460BDE83840FDF7B2BEA7
:10271000A3420FD81A465B68002BF9D111685018F4
:10272000844217D02CD3636054602846BDE83840FB
:10273000FDF7A0BE11685018A04214D020D821681F
:1027400060188342EFD118685B680844C4E900034D
:102750005460EAE723680B441360E6E718685B6897
:1027600008442060CDE7206801445018834211607E
:10277000DBD1D3E900040144C2E90014D5E7704776
:102780000C232B602846BDE83840FDF773BE00BF20
:102790002403002470B5C66905460C465EB1F36893
:1027A000A3B153F82400E8B1026843F824200023C1
:1027B000C0E9033370BD1020FDF7A2FD0646E861B5
:1027C000E8B10023C0E90033C0E90233212204212B
:1027D000284601F009FBEB69F060DB68002BE0D1D3
:1027E000002070BD012101FA04F6721D92002846F6
:1027F00001F0FAFA0028F3D0C0E90146D7E7034B0D
:10280000034832466B2101F0C9FA00BF087E020876
:10281000707E020870B5C66905460C464EB13CB1E3
:10282000EB696268DB6853F82210216043F82240AC
:1028300070BD1020FDF764FD0246E86120B1C0E9DB
:102840000066C0E90266EAE7024B03488F2101F007
:10285000A5FA00BF087E0208707E02082DE9F0414B
:102860000D6907460E461C4601F1140E0020DEF8E5
:1028700000108BB202FB03434FEA134C090C02FB1E
:1028800001CC01309BB203EB0C4385424EF8043B74
:102890004FEA1C44EBDC3CB1B368AB4207DD06EB0E
:1028A000850301355C6135613046BDE8F0817168B2
:1028B00038460131FFF76EFF804690B1326902322F
:1028C00006F10C0192000C30FEF7EAFE3146384664
:1028D0004646FFF79FFF06EB850301355C613561D6
:1028E000E2E7034B03484246BA2101F057FA00BF22
:1028F0005C7E0208707E02082DE9F8431746284ADC
:102900001E4608330C46092E82FB03124FEAE3737E
:102910000546C3EB62033ADD4FF0010C00214FEA9C
:102920004C0C634501F10101F9DC2846FFF732FF49
:10293000014670B3089B4361092F4FF00103036107
:1029400012DC0A340927BE420BDDF61B264414F8BC
:10295000013B0A22303B2846FFF780FFB442014684
:10296000F5D10846BDE8F88304F1090804EB07092E
:10297000444614F8013B0A22303B2846FFF76EFF1D
:102980004C450146F5D1A7F108044444DBE700219A
:10299000CBE70A46034B0448D32101F0FFF900BFFF
:1029A000398EE3385C7E0208707E0208B0F5803F05
:1029B000034636BF030400201020B3F1807F3CBFE4
:1029C0001B020830B3F1805F3CBF1B010430B3F140
:1029D000804F03D3002B06DB013070479B0003D4EC
:1029E0005B0003D4202070470230704703307047EB
:1029F000036813F00702014607D0DA071FD49807CF
:102A000021D55B080B600120704798B2A0B1104639
:102A1000DAB20AB908301B0A1A0704BF1B090430CE
:102A20009A0704BF9B080230DA0703D45B0800F161
:102A3000010006D00B6070471B0C1020E8E7002057
:102A40007047202070479B080B600220704700BF32
:102A500010B50C460121FFF79DFE024618B1012377
:102A6000C0E9043410BD034B034840F2451101F0A6
:102A700095F900BF5C7E0208707E02082DE9F04FD8
:102A8000D1F810801569A84585B00E46924605DB41
:102A90002A46534645468A4690461E46DAF808308E
:102AA000DAF8041005EB0804A342B8BF0131FFF7C0
:102AB00071FE8446002800F08B8000F1140707EBBC
:102AC000840E774505D23B46002243F8042B9E45F1
:102AD000FBD8143606EB88080AF11409464509EBC1
:102AE000850566D2A5EB0A03153B23F003030AF123
:102AF000150A043355452CBF9B464FF0040BCDF807
:102B000008E00394AE46E24605E0090C2AD1B04540
:102B100007F104074AD956F8041B8DB2002DF4D0F2
:102B2000CC463C46002301965CF8040B216886B233
:102B30008AB2000C05FB0622090C1A4405FB0011A1
:102B400001EB124192B242EA0142E64544F8042BFD
:102B50004FEA1143E8D8019E47F80B3056F8041CA1
:102B6000090CD4D03B68002248461D463C4694469A
:102B7000028801FB02C202EB15429BB243EA024308
:102B800044F8043B50F8043B25684FEA134CABB2C1
:102B900001FB0C3303EB124370454FEA134CE7D3B0
:102BA000B04547F80B3007F10407B4D8DDE902E47B
:102BB000D446002C02DC05E0013C03D05EF8043D65
:102BC000002BF9D06046CCF8104005B0BDE8F08F7E
:102BD000034B044862464FF4B17101F0DFF800BFC7
:102BE0005C7E0208707E02082DE9F04312F00303B8
:102BF00083B0144607462DD10E46A4101CD0FA69A6
:102C00008AB39568002D39D0E3074FF0000906D448
:102C1000641011D0286898B10546E307F8D531460D
:102C20002A463846FFF72AFF314680463846FFF7E6
:102C3000F1FD64104646EDD1304603B0BDE8F083A7
:102C40002A4629463846FFF719FF2860C0F8009049
:102C50000546E2E7013B184A52F823200023FFF71C
:102C6000FDFD0646C9E71020FDF74AFB0246F86164
:102C7000E0B10023C0E90033C0E902330121384646
:102C80000192FFF787FD019A054640B1012340F20A
:102C90007121C0E90431002390600360B4E7074B61
:102CA00007482A4640F2451101F078F8054B0448E0
:102CB00040F2B31101F072F8307202085C7E020833
:102CC000707E0208087E02082DE9F0470D46914605
:102CD0002B69496803EB6218AB6808F101049C4258
:102CE00007464FEA621A04DD5B009C4201F10101D4
:102CF000FADC3846FFF74EFD064600284DD0BAF103
:102D0000000F00F114000EDD0AF105024FEA820CFB
:102D1000034606EB8202002143F8041B9342FBD1D9
:102D2000ACF114031844296905F1140319F01F09C3
:102D300003EB810129D0C9F1200E84464FF0000A2F
:102D40001A6802FA09F242EA0A024CF8042B53F814
:102D5000042B994222FA0EFAF2D84B1B153B23F0B2
:102D60000303043305F11502914238BF042340F8F0
:102D700003A0BAF1000F00D1444638463461294619
:102D8000FFF748FD3046BDE8F087043853F8042BC0
:102D900040F8042F9942F9D8EEE7034B0348324636
:102DA0004FF4EF7100F0FAFF5C7E0208707E0208BB
:102DB0000B6984460069C01A16D10CF1140C143149
:102DC0000CEB830210B401EB830301E0944508D2BD
:102DD00052F8044D53F8041D8C42F7D005D24FF041
:102DE000FF305DF8044B7047704701205DF8044BDD
:102DF000704700BF2DE9F04F15460A692B69D21ABA
:102E0000002A83B0884640F0878001F1140605F15E
:102E1000140101EB830106EB830301E09E427ED2A5
:102E200053F8044D51F8042D9442F7D075D32B4636
:102E30000024454698466968FFF7ACFC81460028A7
:102E400000F089802E69C460D8F8100005F1140BD9
:102E500008F1140E09F1140A05F110020EEB8000BE
:102E60000BEB860157464FF0000CCDF804B05EF82E
:102E7000044B52F8045F1FFA84FBABB2A3EB0B03C5
:102E8000240C6344C4EB154404EB23449BB243EA93
:102E90000443704547F8043B4FEA244CE7D8A0EBC5
:102EA000080208F115084045A2F1150234BF0020C0
:102EB000012092080028DDF804B002F101044FEA75
:102EC000840408BF04240BEB0405A942544433D9FD
:102ED0002746284650F8043B1CFA83FE1A0C63442C
:102EE00002EB2E429BB243EA0243814247F8043B85
:102EF0004FEA224CEED80139491B21F003010C4462
:102F000023B954F8043D013E002BFAD04846C9F8D5
:102F1000106003B0BDE8F08F89DA01248BE700214F
:102F2000FFF738FC814678B101220023C0E9042371
:102F3000484603B0BDE8F08F00284FEA820208BF80
:102F400000220AEB0204DBE7064B07484A4640F240
:102F5000372100F023FF034B03484A4640F2452146
:102F600000F01CFF5C7E0208707E020882B08DEDCE
:102F7000000B164B019A1340A3F15073002B06DD92
:102F800000221946104641EC100B02B070475B421C
:102F9000B3F1A07F4FEA235209DA4FF40023134123
:102FA00000221946104641EC100B02B07047A2F106
:102FB00014031E2BDABF4FF00042DA400122002337
:102FC0001946104641EC100B02B070470000F07F2C
:102FD000F8B5046900F1140606EB8404271F54F8C1
:102FE000045C2846FFF7E2FCC0F120030A280B60CE
:102FF00033DDBE42A0F10B0119D254F8080C21B305
:10300000C1F120078D4020FA07F215438840A4F152
:10301000080145F07F538E4243F4401319D254F80F
:103020000C1CF9400843024643EC102BF8BD0B285A
:103030000AD005FA01F141F07F53002043F4401318
:10304000024643EC102BF8BD002045F07F5343F4BB
:103050004013024643EC102BF8BDC0F10B0C25FACF
:103060000CF1BE4241F07F5338BF54F8081C00F108
:10307000150034BF21FA0CF1002105FA00F00843D5
:1030800043F44013024643EC102BF8BD2DE9F04306
:103090000E4683B0012159EC108B1546FFF77AFBE1
:1030A0000446002846D0C9F30A57C9F313030FB1E9
:1030B00043F480130193B8F1000313D101A8FFF783
:1030C00097FC019B63610122203022610FB3A7F2BC
:1030D00033470744C0F1350037602860204603B00D
:1030E000BDE8F08368460093FFF782FC019BF8B1CE
:1030F0000099C0F1200203FA02F2C3400A4301938F
:10310000002B62610CBF01220222A3612261002F09
:10311000DDD104EB8203A0F2324030601869FFF782
:1031200045FCC0EB42102860204603B0BDE8F083A8
:10313000009AE5E7034B0448224640F20F3100F0C5
:103140002DFE00BF5C7E0208707E0208F0B583B0E1
:103150000E4669460746FFF73BFF01A9304655EC8E
:10316000104BB0EE407BFFF733FF33693A69D21A58
:10317000DDE900315B1A03EB4213002B09DD17EE8A
:10318000902A02EB035545EC174B87EE000B03B07A
:10319000F0BD10EE902A51EC100BC3EB033302EBA1
:1031A000035141EC100B87EE000B03B0F0BD00BFE4
:1031B000172808DDB7EE000BB2EE047B013820EED5
:1031C000070BFBD17047034B03EBC00393ED040BDC
:1031D000704700BF307202080139491101F1010C3A
:1031E000116902F1140303EB81018B4200EB8C0C9B
:1031F00016D210B5A0F1040E53F8044B4EF8044F4C
:103200009942F9D88B1A153B23F003030433184471
:10321000844504D9002340F8043B8445FBD810BD05
:10322000844505D9002340F8043B8445FBD870470A
:10323000704700BF03694A11934200F1140009DA94
:1032400000EB830302E053F8042DAAB98342FAD8B5
:103250000020704700EB8203F8DD11F01F01F5D06C
:1032600010B450F8224024FA01F28A40944209D066
:1032700001205DF8044B70470120704753F8042D7E
:10328000002AF5D18342F9D800205DF8044B70473D
:103290009368013B002B936011DA10B49469A34248
:1032A00009DB0A2907D01368581C106019700846FA
:1032B0005DF8044B70475DF8044BFDF7B7BF13682A
:1032C000581C106019700846704700BF9BB1F8B5D4
:1032D000134406460F46541E5D1E01E0AC4208D062
:1032E00014F8011F3A463046FFF7D2FF431CF5D1D0
:1032F000F8BD0020F8BD0020704700BF936810B5EE
:1033000014461BB918460023636010BD00F046FA4E
:103310000023A3600023636010BD00BF2DE9F04FC0
:10332000A1B08B4691461C46049018B1036A002B4D
:1033300000F04781DBF86420BBF90C30D20702D4DF
:103340009F0540F137811E0740F19E80DBF8103069
:10335000002B00F099800023CA460D9343F220030E
:10336000ADF839309AF80030974E07940127002BBA
:103370007AD0D14604E019F8013F002B00F09A8082
:10338000252BF8D1B9EB0A0840F0978099F8003066
:10339000002B69D000234FF0FF32CDE9092309F15A
:1033A000010908930B938DF863301E9305E0089A8A
:1033B00007FA03F31A430892A1464C46052214F873
:1033C000011B3046FEF71CF9A246831B0028EED1F4
:1033D000089BD80644BF20228DF86320190799F86E
:1033E000001044BF2B228DF863202A297BD1079A35
:1033F0001168043200290792C0F2B0800B9199F84D
:1034000001102E2900F08680704C03222046FEF722
:10341000F7F838B1089B001B4022824013430AF1A1
:10342000010A08931AF8011B69488DF83810062222
:10343000FEF7E6F8002800F09780664B002B7ED060
:1034400007AA0092644B04985A4608A9FDF7D6F8DB
:103450000390039B013307D00D9B039A13440D93F4
:103460009AF80030002B84D1DBF8643013F0010FA0
:10347000BBF80C3002D19A0540F195805B0616D45A
:103480000D9821B0BDE8F08F04985946FDF71EFF56
:1034900000283FF460AFDBF86430DD0707D4BBF8E9
:1034A0000C309C0503D4DBF85800FEF7A1F84FF070
:1034B000FF30E6E7B9EB0A08D6D00AF1FF35CDF8C0
:1034C0001490A946049D01E0A0453FD94C465A46B8
:1034D00019F8011F2846FFF7DBFE02340130A4EB88
:1034E0000A04F1D1C0E7A1F13002092A88BFCA4617
:1034F00087D80B9B00E00134217803EB830302EBB8
:103500004303A1F13002092AF5D92E290B93A246D3
:103510007FF47AAF9AF801102A292FD1079B9AF8E5
:1035200002101A6809920433002A0AF10200079374
:10353000B8BF4FF0FF338246B8BF099364E7079BDB
:10354000073323F007030833079385E70D99DDF868
:103550001490414499F800300D9119E7494243F025
:1035600002030B9108934AE707AA00921A4B0498AA
:103570005A4608A9FDF73EFB03906AE7A1F1300225
:103580000023092A09930AF1010A3FF63DAF1AF810
:10359000011F03EB830302EB4303A1F13002092A6D
:1035A000F5D9099330E7DBF85800FEF721F8BBF8AE
:1035B0000C3063E7DBF85800FEF712F8BBF90C306B
:1035C000C1E6FDF777FDB5E6AC7E0208B47E0208E1
:1035D000B87E0208FD050008CD32000810B4054C85
:1035E0008446134620685DF8044B0A466146FFF79F
:1035F00095BE00BF1C000024B1F90C302DE9F0414C
:103600001E070C4680463DD44A68002A56DDE56A0E
:10361000002D34D00022D8F80060C8F8002013F440
:103620008052216A57D101234046A847451C0246D3
:1036300066D0B4F90C30E56A216A580705D563688D
:10364000D21A636B0BB1236CD21A00234046A847F1
:10365000431C42D00023636023692360A389DF04F5
:1036600000D56065616BC8F8006041B104F14403A6
:10367000994202D04046FFF72FF8002363630020F1
:10368000BDE8F0810E69002EF9D09B070D6808BFD8
:103690004B690E6018BF0023AD1B8B600BE02B46FF
:1036A0003246216AA76A4046B847B0F1000CA5EB44
:1036B0000C05664406DD002DF1DCE0E70A6C002A0B
:1036C000A5DCDCE7B4F90C3043F04003A3814FF0F4
:1036D000FF30BDE8F081626DAFE7D8F80010B4F9B3
:1036E0000C301D29F0D80C4ACA40D507ECD5226908
:1036F000226000226260DA04B4D50029B1D0B1E7BB
:10370000D8F80030002B94D01D2B01D0162BD9D126
:10371000C8F80060B3E700BF0100402038B50B696E
:10372000CBB10C46054608B1036ABBB1B4F90C3005
:103730008BB1626ED00701D4990512D52846214677
:10374000FFF75AFF636EDA07054602D4A3899B058B
:103750000BD5284638BD0025284638BDFDF7AAFC04
:10376000E4E7A06DFDF73CFFE8E7A06DFDF740FF43
:10377000EFE700BF014618B1044B1868FFF7CEBF52
:10378000034A04490448FDF7E5BC00BF1C000024BF
:10379000100000241D370008200000249368002B2F
:1037A00000F0F8802DE9F04FB1F90CC01CF0080FC3
:1037B00083B0904681460C4631D00B697BB31CF038
:1037C0000207D8F8006038D00027D4F828B0216A62
:1037D000DFF8C4A23D4655452B463A4628BF53461E
:1037E0004846C5B1D847002840F3CA80D8F8083009
:1037F0001B1A07442D1AC8F80830002B00F0B680B9
:1038000055452B46D4F828B0216A28BF53463A467E
:103810004846002DE6D1D6E900750836DBE721469B
:103820004846FDF753FD002840F0AF80B4F90CC0C6
:10383000D8F800601CF00207C6D11CF0010A63D161
:103840002368A168574618468B46002F58D01CF4B1
:10385000007F00F0B580B9420A4600F2E1801CF416
:10386000906F2FD0216962695D1A02EB420202EB70
:10387000D2726B1C52103B44934292BF93469B46BC
:103880001A461CF4806F00F0EA8011464846FCF7A7
:103890006BFD002800F0F9802A4621690090FDF7B1
:1038A000FFFEA289009B22F4906242F08002A28176
:1038B0005819ABEB0505C4F814B02361A56020606E
:1038C000BB463A465146009200F072F9A16823685F
:1038D000009AA1EB0B011A443D46A160226000272B
:1038E000D8F808305B1BAA44C8F80830002B3DD03C
:1038F0002368A168B4F90CC018468B46002FA6D1E6
:10390000D6E900A708369EE73846BB463D460097F5
:10391000002D41D0002846D0009A2068A168D4E943
:103920000473AA4228BF2A46B84204D901EB030A0D
:10393000524500F38580934275DC216AA76A5A4696
:103940004846B847B0F1000A1ADD009BB3EB0A0302
:1039500000930FD00120D8F80830A3EB0A03D3441A
:10396000A5EB0A05C8F80830002BD1D1002003B020
:10397000BDE8F08F21464846FFF7D0FE0028EAD088
:10398000B4F90C3043F04003A3814FF0FF3003B093
:10399000BDE8F08F00207047756833460836002D6B
:1039A000FAD0D3F800B02A460A215846FDF728FE7F
:1039B000002867D00130A0EB0B0300931A46ACE758
:1039C00022699A4214D36269BA4211D86FF0004357
:1039D000BB4228BF3B46A56A93FBF2F3216A02FB78
:1039E00003F348465246A847051EC9DD7F1B77E70B
:1039F000B94228BF39460D4618460A46514600F0DE
:103A0000D7F8A1682368491B2B44A16023600029D3
:103A1000ECD121464846FFF781FE0028E6D0AFE70B
:103A2000BB463A464EE75946019200F0C1F8019A6A
:103A3000A3689B1AA360236813442360924684E71B
:103A40005946524600F0B4F8236853442360214697
:103A50004846FFF763FE00283FF477AF90E74846FB
:103A600000F0F6F9034600287FF422AF21694846AA
:103A7000FEF732FEB4F90C300C22C9F8002023F016
:103A800080037FE76A1C009247E70C22B4F90C30F0
:103A9000C9F8002076E700BF00FCFF7F70B5B1F9E0
:103AA0000C300C46990796B007D504F14703012264
:103AB000C4E90432236016B070BDB4F90E100029B9
:103AC000054629DB6A4600F0F3F8002822DB4FF4B4
:103AD00080612846019EFCF747FC88B3A3892060DB
:103AE00043F0800306F47046A381B6F5005F4FF4FF
:103AF0008063C4E90403DED1B4F90E10284600F057
:103B0000EDF80028D7D0A38923F0030343F0010385
:103B1000A381D0E7B4F90C3013F0800F14BF402616
:103B20004FF4806631462846FCF71EFC40B1A3895D
:103B3000206043F08003C4E90406A38116B070BD81
:103B4000B4F90C309A05B6D423F0030304F147020C
:103B500043F002030121C4E90421A3812260AAE702
:103B600070B50C46B1F90E10002996B015461E46E8
:103B70000FDB6A4600F09CF800280ADB019B03F487
:103B80007043A3F50053B3FA83F34FF480625B09EB
:103B900008E0A28912F0800F4FF0000314BF40220A
:103BA0004FF48062002033602A6016B070BD00BF01
:103BB00088420ED98B1883420BD900EB020C002AE5
:103BC0006ED0624613F801CD02F801CD9942F9D1C9
:103BD00070470F2A0FD8034602F1FF3C002A5FD03E
:103BE0000CF1010C013B8C4411F8012B03F8012F5F
:103BF0006145F9D1704740EA01039B0751D1A2F119
:103C0000100370B501F1200C23F00F0501F1100E27
:103C100000F11004AC441B095EF8105C44F8105C21
:103C20005EF80C5C44F80C5C5EF8085C44F8085CD8
:103C30005EF8045C44F8045C0EF1100EE64504F1F5
:103C40001004E9D1013312F00C0F01EB031102F063
:103C50000F0400EB031328D0043C24F003064FEAC2
:103C6000940C1E441C1F8E465EF8045B44F8045FEF
:103C7000B442F9D10CF1010402F0030203EB840316
:103C800001EB840102F1FF3C4AB10CF1010C013B54
:103C90008C4411F8012B03F8012F6145F9D170BD57
:103CA000704702F1FF3C03469AE72246EAE700BF6D
:103CB00070B50C46084D03460026204611461C46AA
:103CC0002E6017F0A9FE431C00D070BD2B68002B9E
:103CD000FBD0236070BD00BF6404002438B5074DDD
:103CE0000022044608462A6017F0A6FE431C00D0B6
:103CF00038BD2B68002BFBD0236038BD6404002442
:103D000070B4840746D04C1E002941D0D5B203467A
:103D100002E0611EE4B30C4603F8015B9907F8D199
:103D2000032C2ED9D5B245EA05250F2C45EA0545C9
:103D300019D9264603F11001103E0F2E41F8105CF0
:103D400041F80C5C41F8085C41F8045C01F1100199
:103D5000F2D8A4F1100121F00F0104F00F0410318A
:103D6000032C0B440DD91E4621460439032946F87D
:103D7000045BFAD8211F21F0030104310B4404F045
:103D800003042CB1D2B21C4403F8012BA342FBD193
:103D900070BC70470C460346C2E7000000B50B4CF0
:103DA00025681446EE681A4685B003460D464CB1A8
:103DB00007490095CDE901143046064900F0A0F806
:103DC00000F0B2F804490C46F3E700BF1C000024E1
:103DD000D07E0208E07E0208DC7E020808B51346A9
:103DE0000022FFF7DBFF00BF70B5A1FB025454B9FE
:103DF0002946FCF7B9FA064618B12A462146FDF7CE
:103E0000F5FA304670BD0C2202600026F9E700BFCB
:103E100010B4034CD4F8E440A4465DF8044B60476A
:103E20006C00002482B049B15AB16BB113780B60B9
:103E30001278101E18BF012002B0704701A9002A95
:103E4000F3D1104602B070476FF00100F4E700BFF5
:103E50002DE9F041144641B30AB306460D4600F081
:103E60006BF88442074602D8B4EB500F13D82146B2
:103E70003046FCF779FA804650B1BC4222462946CA
:103E800028BF3A46FDF70CFC29463046FEF724FCD5
:103E90004046BDE8F081A8464046BDE8F081A04616
:103EA000FEF71AFC4046BDE8F081BDE8F04111463E
:103EB000FCF75ABA10B4034CD4F8E040A4465DF8BD
:103EC000044B60476C00002449B1FF2A02D80A70F5
:103ED000012070478A2303604FF0FF307047084687
:103EE000704700BF0CB400B583B004AB53F8042B8B
:103EF0000193FFF713FA03B05DF804EB02B07047CB
:103F00000EB410B583B005AB064C53F8042B0193E7
:103F100001462068FFF702FA03B0BDE8104003B085
:103F2000704700BF1C00002408B5062000F0A0F870
:103F3000012017F021FD00BF51F8043C181F002B91
:103F4000BCBF0B58C018704738B5C46B0CB100200B
:103F500038BD80210546FCF707FA0246E86330B118
:103F6000031F7C3243F8044F9342FBD1EFE74FF03D
:103F7000FF3038BD30B51F2983B0054608D8C36B64
:103F80000C4653B153F8240043F8242003B030BD4D
:103F9000162303604FF0FF30F8E780210192FCF711
:103FA000E3F9019AE86303460028F3D0011F00F10A
:103FB0007C05002041F8040FA942FBD1E2E700BFD5
:103FC0001F2938B505461ED8C26B0C466AB152F897
:103FD000213053B1012B06D0591C10D0002142F8DA
:103FE000241020469847002038BD284600F0F2F8FB
:103FF000224601462846BDE8384000F0D5B81623D1
:104000000360012038BD162303604FF0FF3038BD38
:104010001F292AD838B5C36B0C460546A3B153F8FF
:10402000242003EB84034AB1511C0BD0012A07D092
:10403000002520461D609047284638BD012038BD28
:10404000032038BD022038BD8021FCF78DF90346DE
:10405000E86338B1021F00217C3042F8041F82421D
:10406000FBD1DCE74FF0FF3038BD4FF0FF30704739
:1040700038B5134B1F281D681DD8EA6B044662B182
:1040800052F820304BB1012B05D0591C0FD0002124
:1040900042F820109847002038BD284600F09AF8D2
:1040A000224601462846BDE8384000F07DB8162378
:1040B0002B60012038BD16232B604FF0FF3038BD38
:1040C0001C000024114B1F2870B51E6808D8F36B24
:1040D00004460D464BB153F8240043F8245070BDFC
:1040E000162333604FF0FF3070BD80213046FCF75F
:1040F0003BF90346F0630028F4D0021F00217C3016
:1041000042F8041F8242FBD1E5E700BF1C000024F7
:1041100038B50B4B1D68EC6B0CB1002038BD80210D
:104120002846FCF721F9E86338B1031F00F17C024F
:1041300043F8044F9342FBD1EFE74FF0FF3038BD17
:104140001C00002438B5174B1F281D6826D80446CC
:10415000E86BA0B150F8243000EB84004BB15A1C3E
:104160000BD0012B07D00025056020469847284634
:1041700038BD012038BD032038BD022038BD802164
:104180002846FCF7F1F8E86340B1031F00F17C0119
:10419000002243F8042F8B42FBD1DBE74FF0FF30C6
:1041A00038BD00BF1C00002470B50C46084D034606
:1041B0000026204611461C462E6017F0CDFB431CFE
:1041C00000D070BD2B68002BFBD0236070BD00BFFA
:1041D0006404002417F0B8BBB0EE407B17EE903AB1
:1041E0001B4A23F0004393421AD91A4A934202D938
:1041F00030EE400B704700B585B0684600F018FA05
:1042000000F0030001289DED021B9DED000B10D076
:10421000022809D090B900F01BF905B05DF804FB45
:104220009FED091B00F014B900F012F9B1EE400B3C
:10423000F3E700F0A5F9B1EE400BEEE7012000F046
:104240009FF9EAE7AFF300800000000000000000E3
:10425000FB21E93FFFFFEF7FB0EE407B17EE903A86
:104260001B4A23F0004393421BD91A4A934202D9B6
:1042700030EE400B704700B585B0684600F0D8F9C5
:1042800000F0030001289DED021B9DED000B13D0F3
:1042900002280BD098B9012000F072F905B05DF842
:1042A00004FB9FED091B002000F06AB9012000F01B
:1042B00067F9B1EE400BF1E700F0CAF8EEE700F065
:1042C000C7F8B1EE400BE9E7000000000000000075
:1042D000FB21E93FFFFFEF7F08B52DED028BB0EE2C
:1042E000408A00F0FBFAB4EE488AF1EE10FAF0EEE4
:1042F000408A0AD6B0EE480A00F03EF8F7EE007A9F
:10430000B4EEE70AF1EE10FA04DCB0EE680ABDEC98
:10431000028B08BDFDF72CF9BDEC028B0346212270
:104320001A600248BDE8084000F02EB8DC7E0208A2
:1043300000F0D0BB08B52DED028BB0EE408A00F046
:1043400081F8B4EE488AF1EE10FA06D6DFED098A5C
:10435000B4EEE88AF1EE10FA02D4BDEC028B08BD8F
:10436000FDF706F988EEA80ABDEC028B2123036055
:1043700008BD00BF0000000010EE103A23F000431B
:1043800000EE103A704700BF9FED010A704700BF72
:104390000000C07F08B52DED028BF0EE408AB0EE34
:1043A000608A00F033F820B9B0EE480ABDEC028B09
:1043B00008BDB0EE480A00F029F820B1F4EEC88A32
:1043C000F1EE10FAF0DDB0EE680ABDEC028B08BD2C
:1043D00008B52DED028BF0EE408AB0EE608A00F059
:1043E00015F820B9B0EE480ABDEC028B08BDB0EE5E
:1043F000480A00F00BF820B1F4EEC88AF1EE10FA8A
:10440000F0D5B0EE680ABDEC028B08BD10EE103A94
:1044100033F000400ED0A0F50003B3F1FE4F0DD3F2
:10442000074B421E9A4207D9A0F1FF40B0FA80F034
:1044300040097047022070470320704704207047EE
:10444000FEFF7F00B1EEC00A704700BF0000000011
:1044500010EE903A23F00043B3F1795F2DED028B1B
:104460002ED2FDEEC07B17EE903A002B65D020EEE9
:10447000004B9FED358B9FED362B9FED373BA4EE28
:10448000082B9FED375BA4EE023B9FED376BA4EE4C
:10449000035B9FED377BA4EE056BA4EE067B24EE59
:1044A000077B21EE401BB6EE006BA4EE071BB7EEB8
:1044B000000B94EE061BBDEC028B30EE410B7047F7
:1044C0009FED218B20EE004B9FED212B9FED223B9A
:1044D000A4EE082B9FED225BA2EE043B9FED226B26
:1044E000A3EE045B9FED227BA5EE046B224AA6EEB1
:1044F000047B934227EE047BD3D9204A934217D8FA
:10450000B7EE006B0020A3F5001141EC150B36EE61
:10451000456B21EE401BB6EE003BA4EE071B94EE6C
:10452000035BBDEC028B35EE415B36EE450B70470D
:10453000B6EE076BB5EE025BEBE7B7EE000BBDEC3A
:10454000028B7047AFF30080D43888BEE9FAA8BD6B
:10455000C4B1B4BD9EEE213EAD529C804F7E92BE52
:104560009015CB19A001FA3E7751C1166CC156BF08
:104570004C5555555555A53F3233D33F0000E93FC3
:1045800010EE903A23F00043B3F1795F04D2FDEED0
:10459000C07B17EE903A5BB320EE007B9FED162BAD
:1045A0009FED173B9FED184BA7EE023B9FED185B6D
:1045B000A3EE074B9FED186BA4EE075BA5EE076B10
:1045C00020EE075B30B99FED164BA7EE064BA4EE2D
:1045D000050B70479FED144B26EE456BB6EE003B86
:1045E000A1EE036B96EE071BA5EE041B30EE410B0C
:1045F000704700BFAFF300807CD5CF5A3AD9E53D74
:10460000EB9C2B8AE6E55ABE7DFEB157E31DC73E03
:10461000D561C119A0012ABFA6F810111111813F5F
:10462000495555555555C5BF495555555555C53F1E
:1046300070B553EC102B9E4923F000458D4288B095
:10464000044669D99B498D421E461BD8002B9FED1D
:10465000887B40F3E98030EE477BA1F51B21A1F573
:10466000F0618D4267D09FED845B37EE456B37EE8E
:10467000467B37EE457B84ED006B84ED027B0120A9
:1046800008B070BD8C498D4262D98C498D424BD89F
:1046900010462A15A2F21642A5EB025141EC170B67
:1046A0009FED774BBDEEC75B08A8B8EEC55B37EE54
:1046B000457B27EE047BBDEEC76B8DED025BB8EE4C
:1046C000C66B37EE467B8DED046B27EE047B8DEDDC
:1046D000067B032130ED027BB5EE407BF1EE10FA54
:1046E0000B4601F1FF31F5D075490191022100918E
:1046F00002A8214600F060FB002EC1DA94ED006BA9
:1047000094ED027BB1EE466BB1EE477B84ED006B1E
:1047100084ED027B4042B3E70020002184ED000BD2
:10472000C4E902010020ABE730EE407B80ED027B64
:1047300080ED007BF6E79FED545B9FED556B37EE08
:10474000467B37EE456B37EE467B37EE457B92E78F
:1047500000F0BCF8B6EE007B9FED4F5BA0EE057B52
:10476000FDEEC77B9FED423B17EE900A9FED426B3B
:104770001F28B8EEE75BB1EE454BA5EE430B25EEE7
:10478000067B1CDC4F4B421E53F82230AB4216D046
:1047900030EE476B30EE460B002E30EE470B84EDCB
:1047A000006B84ED020BBFF66BAFB1EE466BB1EE62
:1047B000400B84ED006B84ED020B404260E730EE6D
:1047C000476B16EE903AC3F30A53C3EB1553102B05
:1047D0004FEA2552DEDDB0EE403B9FED2D6B9FEDA5
:1047E0002A2BA4EE063B30EE437BA4EE067B95EE2F
:1047F000027B33EE476B16EE903AC3F30A53D21A9C
:10480000312A0EDDB0EE430B9FED256B9FED262B7D
:10481000A4EE060B33EE407BA4EE067B95EE027B06
:10482000B6E7B0EE430BB5E7274930EE077B8D4284
:104830000ED09FED115B37EE056B37EE467B37EE02
:10484000057B84ED006B84ED027B4FF0FF3017E7B2
:104850009FED0D5B9FED0E6B37EE067B37EE056B24
:1048600037EE467B37EE057BEBE700BFAFF300800A
:1048700000004054FB21F93F3163621A61B4D03D1E
:1048800000000000000070417370032E8A19A33BE2
:104890000000601A61B4D03D83C8C96D305FE43F49
:1048A0000000002E8A19A33BC14920259A837B3939
:1048B000FB21E93F7BD90240FB213941FFFFEF7F1C
:1048C000DC7402085C740208FB21F93F51EC100B08
:1048D000024621F0004343EC102B704738B510EE30
:1048E000105A25F00044B4F17E5F2DED048BF0EEFC
:1048F000407A7FD077D8B4F17C5F0ED2B4F1485FB4
:1049000080F092809FED637A30EE077AF7EE006ACE
:10491000B4EEE67AF1EE10FA62DCB0EE670AFFF769
:104920002BFDF7EE007A37EEC08AB6EE007A28EE5D
:10493000078ADFED596A9FED597A9FED596A9FED1D
:10494000595ADFED595ADFED598AE8EE076A9FEDB3
:10495000587AA8EE067A9FED576AA6EE885AA7EE17
:10496000086A9FED557ADFED556AE5EE085AA6EE26
:10497000087AE5EE886AE7EE087AE6EE888AB0EE15
:10498000480AB0EE679AFFF75DFD4D4B9C4268EE1A
:10499000888A3AD810EE103A6FF30B0306EE903A7D
:1049A000A6EEE68A70EE267A88EE895AC8EE274A85
:1049B0009FED447ADFED447AB0EE006AA4EEC67A49
:1049C00030EE000AF0EE675A90EE057AE6EEC65A2F
:1049D00037EE657A37EEC70A002D01DCB1EE400AEA
:1049E000BDEC048B38BDBDEC048B70EE407A87EED5
:1049F000A70A38BDBDEC048B9FED320A9FED337AD8
:104A000027EE800AA7EE870A38BD88EE896A9FEDF7
:104A1000307ADFED2E7AA0EE060AF0EE006AA0EE04
:104A2000267A37EEC70AD7E720EE007ADFED1B6A59
:104A30009FED196ADFED1B5A9FED195ADFED1A4AF7
:104A4000A7EE266ABDEC048BE6EE075ADFED186A86
:104A50009FED186AE7EE056AE5EE874AA6EE876ADB
:104A60009FED165ADFED145ADFED106AA4EE875A57
:104A7000E6EE075AE5EE076AB7EE006AA5EE876A2A
:104A800026EE877AC7EE066AE0EE267AB0EE670A6F
:104A900038BD00BFCAF24971047F4F3A08EF1138A0
:104AA0002EC69D3D461124BDA80A4E3EABAA2A3E05
:104AB000613330BF2D57014039D119C090B0A6BE27
:104AC0009999793F2EBD3BB3DB0F493FDB0FC93FBF
:104AD0002EBD3B3310B582B0CDED010A019B23F012
:104AE0000042B2F1FF4FF0EE407A30D810EE100ADB
:104AF00020F00041B1F1FF4F29D8B3F17E5F40D0E3
:104B00009C1704F0020444EAD07431B372B3B2F1DA
:104B1000FF4F3ED0B1F1FF4F28D0891AB1F1F45FB9
:104B20004FEAE15232DA002B40DA3C323EDA9FEDB6
:104B3000330A012C4CD0022C41D064B19FED307A65
:104B4000DFED307A30EE070A30EE670A03E09DEDC4
:104B5000017A37EE270A02B010BD022C0ED09FED6D
:104B60002A7A032C07FE000A02B010BD9FED270A27
:104B7000DFED277A002827FE800AECE79FED210A67
:104B8000E9E702B0BDE8104000F048B89FED200A08
:104B9000CFE7B1F1FF4F04F1FF3420D0022C26D82B
:104BA0001C4B03EB840393ED030AD4E79DED017ADC
:104BB00087EE870AFFF7E0FB00F030F8B9E79FEDDA
:104BC000107ADFED107A30EE070A37EEC00AC2E73E
:104BD00010EE103A03F1004300EE103ABBE7022C4E
:104BE00008D80C4B03EB840393ED000AB3E79FED69
:104BF000030AB0E79FED080AADE700BF0000000020
:104C00002EBDBB33DB0F4940DB0F49C0DB0FC9BFF3
:104C1000DB0FC93FE4750208DB0F493F38B510EEE2
:104C2000105A25F00044B4F1A14FF0EE407A0AD3B7
:104C3000B4F1FF4F55D8DFED4E7A9FED4E7A002D3F
:104C400037FE270A38BD4C4B9C4259D8B4F1445F1B
:104C50004AD34FF0FF3227EEA76A9FED485A9FEDE7
:104C6000487ADFED485ADFED484A66EE066A531C83
:104C7000A6EE857AE6EEA54A9FED445ADFED445A4A
:104C8000A7EE265AE4EEA65A9FED427ADFED424A9D
:104C9000A5EE267AE5EEA64A9FED405ADFED405A92
:104CA000A7EE265A9FED3F7AA4EEA67AE5EE265AA5
:104CB00027EE267AA5EE867A27EE877A35D03A4B0C
:104CC00003EB820393ED046AD3ED006A37EE467A74
:104CD000002D37EE677A36EEC70AB3DAB1EE400A36
:104CE00038BD30EE000A38BD9FED307A30EE077ADD
:104CF000F7EE006AB4EEE67AF1EE10FAA9DD38BDFF
:104D0000FFF73AFB2A4B9C4212D8A3F5D0039C42F2
:104D100023D8F0EE007ABFEE007AA0EE277A0022C8
:104D200030EE270AC7EE007A95E737EEC70A38BD9E
:104D3000204B9C420BD8F7EE087AB7EE007AA0EE33
:104D4000277A022230EE670AC0EE077A83E7BFEEC9
:104D5000007AC7EE007A03227DE7F7EE007A30EEA4
:104D6000677A30EE270A0122C7EE007A73E700BFA8
:104D7000DB0FC9BFDB0FC93FFFFFDF3ED769853CB3
:104D800059DA4B3D21A215BD6BF16EBD356B883DE7
:104D900095879DBD6E2EBA3D388EE3BD2549123EE6
:104DA000ABAAAA3ECDCC4CBEFC750208CAF2497132
:104DB000FFFF973FFFFF1B402DE9F04F2DED088BC4
:104DC000ADF5137D1C4603938146A34BA49812F1C5
:104DD000140F53F8205004F1FF37C0F248829F4867
:104DE000D31E80FB0340DB17C3EBA0030293013308
:104DF000A3EB8303DB001A44029BEC19A3EB07032C
:104E00001CD401349FED8E6BA59E1C441AA89446B9
:104E10000AE056F8232007EE902A0133B8EEE77B2C
:104E2000A342A0EC027B08D0002BF2DAB0EE467B66
:104E30000133A342A0EC027BF6D16246002DC0F202
:104E4000C482039B1AA800EBC3060DF5D47C4FEA7D
:104E5000C3083C4605EB030E09EBC300002F9FED92
:104E6000787B09DBB2464B46B3EC025B3AED026B52
:104E70008342A5EE067BF7D101347445ACEC027B8E
:104E800006F10806EAD10DF1180A0AEB85039FED39
:104E90006E9B9FED6F8B043B09EB080404930AEBB8
:104EA0008508AB466AAE00951046059192AB03EBC0
:104EB000CB03BBF1000F13ED280B4FEACB0315DD3D
:104EC0003344524620EE097B33ED025BB0EE406B7B
:104ED000BDEEC77BB342B8EEC77BA7EE486BBDEE15
:104EE000C66B37EE050BA2EC016AEBD1019000F026
:104EF0009FFAB4EE007BB0EE40AB20EE070B00F063
:104F00001BFBB2EE007B0198A0EE47ABBDEECABB27
:104F10000028B8EECB7B3AEE47AB6EDD0BF1FF3EDF
:104F2000C0F118035AF82E2042FA03FC0CFA03F3DE
:104F3000D21AC0F117011BEE103A42FA01F5634490
:104F4000002D4AF82E200BEE103A00F35E81B5EEEC
:104F500040ABF1EE10FA40F0B180009B9B450BDDB9
:104F60000AEB8B03002253F8041D434542EA010279
:104F7000F9D1002A40F06381009B013B5AF82330AD
:104F8000002B40F05781049B012153F8042D01317F
:104F9000002AFAD00BF1010359449C46029D039A62
:104FA00003EB050E0EF1804EA59D5A440EF1FF3E17
:104FB00006EBC30B1AAB05EB8E0E03EBC2059EEDA1
:104FC000017AB8EEC77B002FA5EC027B0EF1040E30
:104FD0009FED1B7B09DB2A464B46B3EC025B32EDAF
:104FE000026BA342A5EE067BF7D10CF1010C8C45B8
:104FF000ABEC027BE3DD8B4658E740F0FD800BF124
:10500000FF335AF82350ED15002DA0DD1BEE103AAA
:10501000BBF1000F03F101030BEE103A40F3D9810D
:1050200052464FF0000C52F8041B002900F0DE80BD
:10503000C1F1807142F8041C6FF07F4114E000BFA1
:105040000000000000000000000000000000703EB2
:10505000000000000000704120760208ABAAAA2AD6
:105060001368CB1A42F8043B0CF1010CE345F7DC62
:10507000012100280CDD012800F0D380022807D18F
:105080000BF1FF325AF82230C3F315034AF82230ED
:10509000022D7FF45CAFB7EE000B30EE4AAB002977
:1050A0003FF455AF019000F0C3F93AEE40ABB5EED6
:1050B00040ABF1EE10FA01983FF44FAF024605996C
:1050C000B0EE4A0B404202950191009D009200F023
:1050D000AFF99FEDC95BB0EE407BB4EEC50BF1EECE
:1050E00010FADDE90021029BC0F238819FEDC46B0C
:1050F00020EE066BBDEEC66B0BF10104B8EEC64B9D
:10510000A4EE457BBDEEC77B183217EE100A4AF8B5
:105110002B0016EE100A4AF82400B7EE000B1046DA
:10512000CDE9003100F084F9002CDDE90031C0F256
:105130003F819FEDB35B661C6AAF0AEB8602F0000D
:1051400007EBC60632ED017A5245B8EEC77B27EE73
:10515000007B20EE050B26ED027BF3D16AAE0DF548
:105160008478A0F10802B718C646A44600269A46DD
:10517000002D9FEDA57B0EDBA54BB946002201E07B
:10518000B24208DCB3EC025BB9EC026B013295422F
:10519000A5EE067BF4DA0CF1FF3CBCF1FF3FAEEC70
:1051A000027B06F10106A7F10807E1D1A49A022AC1
:1051B000534600F38780002A70DC0DD19FED927B6F
:1051C000404430ED026B404537EE067BF9D1002BB1
:1051D00040F0EB8081ED007B1BEE103A03F00700FE
:1051E0000DF5137DBDEC088BBDE8F08F0CF1010CC3
:1051F000E3453FF718AF3CE7B6EE007BB4EEC7AB34
:10520000F1EE10FA38DA0025A1E60133BBF1000F08
:105210000BEE103AD8BF00213FF702AF01287FF410
:105220002DAF0BF1FF325AF82230C3F316034AF8C0
:1052300022302DE70BF101039C461946AEE60BF137
:10524000FF34A0F118025AF8240005992B46009D5E
:1052500000287FF462AF0BF1804001380AEB800038
:1052600050F8046D013C183A002EF9D055E70020A3
:105270006FF017030290BEE51BEE103ABBF1000F72
:1052800003F101030BEE103AC8BF02253FF7C8AE89
:10529000B7EE007B37EE4AAB022558E69FED5A6B1E
:1052A000404430ED027B404536EE076BF9D137EED6
:1052B000467B002B67D0B1EE466B81ED006B002C76
:1052C00064D16DE0A49A032A86D1002C00F08F806F
:1052D00008EBC40696ED006BE5003246304630ED33
:1052E000027BB0EE465B404536EE076B37EE467B01
:1052F00080ED006B37EE057B80ED027BEFD1012C5A
:1053000075D096ED006B08F1080032ED027BB0EE2F
:10531000465B904236EE076B37EE467B82ED006BC4
:1053200037EE057B82ED027BEFD19FED377B05F1F8
:105330000802424408F1100032ED026B904237EE51
:10534000067BF9D198ED005B98ED026B73B981EDA6
:10535000005B81ED026B81ED047B3DE7BDEEC07B20
:105360005C4617EE100A4AF82B00D6E6B1EE455B14
:10537000B1EE466BB1EE477B81ED005B81ED026BD8
:1053800081ED047B28E781ED006B5CB144A801222C
:10539000B0EC026B0132944237EE067BF8DA0BB1C7
:1053A000B1EE477B81ED027B16E7B1EE477B11E75B
:1053B000A49A022A15DC002A2CDC7FF40DAF9FEDA5
:1053C000127B002B3FF406AFEFE7039B4FEAC308C5
:1053D00059E5022D7FF4BBADB7EE007B37EE4AAB4B
:1053E000B5E5A49A032A7FF4F7AE0DF584789FED16
:1053F000067BA7E7AFF300800000000000007041CB
:10540000000000000000703E0000000000000000EE
:10541000307602089DED427B2BB100224FF0004315
:10542000C1E90023BCE700220023C1E90023B9E75A
:1054300053EC102B10B4C3F30A54194664BB23F089
:105440000041114325D09FED2E7B394920EE077B8B
:10545000884253EC172B3FDBC3F30A541946363C02
:105460004CF2503C604520DC204440F2FE74A042E7
:105470001BDC002827DC10F1350F34DB36306FF3EE
:105480001E519FED217B41EA005343EC102B20EE8F
:10549000070B5DF8044B704740F2FF7C6445DFD199
:1054A00030EE000B5DF8044B70479FED197B9FEDCC
:1054B0001A5BB0EE470B002B5DF8044B27FE057B13
:1054C00027EE000B70476FF31E5141EA005343EC87
:1054D000102B5DF8044B70479FED110B5DF8044BEA
:1054E00027EE000B70479FED0E7B9FED0F5BB0EE3C
:1054F000470B002B27FE057B27EE000BC9E700BFFB
:105500000000000000005043000000000000903C3C
:105510009C7500883CE4377E9C7500883CE437FE2F
:1055200059F3F8C21F6EA50159F3F8C21F6EA58189
:10553000B03CFFFF0000000000B583B08DED000B14
:1055400001990098C1F30A52A2F2FF33132B33DC06
:10555000002B23DB3C4A1A4101EA020E5EEA000EF0
:105560008C462ED09FED367B9DED006B36EE077B93
:10557000B5EEC07BF1EE10FA09DD002904DA4FF434
:10558000801141FA03F39C442CEA020100200B46EF
:10559000024643EC102B03B05DF804FB9FED287B23
:1055A00030EE077BB5EEC07BF1EE10FAEFDD00299F
:1055B0002ADB00200146EAE7332B07DDB3F5806FD5
:1055C0001DD09DED000B03B05DF804FBA2F2134269
:1055D0004FF0FF3C2CFA02F20242F2D09FED187B12
:1055E0009DED006B36EE077BB5EEC07BF1EE10FA59
:1055F000CDDD002984460EDB2CEA0200C7E79DEDD5
:10560000007B37EE070BDEE721F0004108430FD1A6
:105610004FF00041BBE7142B0DD04FF0010EC3F14A
:1056200034030EFA03F39C44844538BF7144E3E726
:1056300006490020ABE70131DEE700BFAFF3008091
:105640009C7500883CE4377EFFFF0F000000F0BF30
:1056500080F0004002E000BF81F0004142001FBF27
:105660005FEA410392EA030F7FEA226C7FEA236C30
:105670006AD04FEA1262D2EB1363C1BFD218414025
:1056800048404140B8BF5B42192B88BF704710F0BB
:10569000004F40F4000020F07F4018BF404211F05E
:1056A000004F41F4000121F07F4118BF494292EAC6
:1056B000030F3FD0A2F1010241FA03FC10EB0C00F2
:1056C000C3F1200301FA03F100F0004302D549427F
:1056D00060EB4000B0F5000F13D3B0F1807F06D32C
:1056E00040084FEA310102F10102FE2A51D2B1F124
:1056F000004F40EBC25008BF20F0010040EA030019
:105700007047490040EB0000013A28BFB0F5000F98
:10571000EDD2B0FA80FCACF1080CB2EB0C0200FA4E
:105720000CF0AABF00EBC25052421843BCBFD0409D
:105730001843704792F0000F81F4000106BF80F417
:1057400000000132013BB5E74FEA41037FEA226CDA
:1057500018BF7FEA236C21D092EA030F04D092F0A5
:10576000000F08BF0846704790EA010F1CBF0020D9
:10577000704712F07F4F04D1400028BF40F0004036
:10578000704712F100723CBF00F50000704700F056
:10579000004343F0FE4040F4000070477FEA22627D
:1057A00016BF08467FEA23630146420206BF5FEA4E
:1057B000412390EA010F40F4800070474FF000034E
:1057C00004E000BF10F0004348BF40425FEA000C15
:1057D00008BF704743F0964301464FF000001CE0BD
:1057E00050EA010208BF70474FF000030AE000BF13
:1057F00050EA010208BF704711F0004302D5404251
:1058000061EB41015FEA010C02BF844601460020C2
:1058100043F0B64308BFA3F18053A3F50003BCFADD
:105820008CF2083AA3EBC25310DB01FA02FC63448A
:1058300000FA02FCC2F12002BCF1004F20FA02F291
:1058400043EB020008BF20F00100704702F1200284
:1058500001FA02FCC2F1200250EA4C0021FA02F2E5
:1058600043EB020008BF20EADC70704753B94AB925
:10587000002908BF00281CBF4FF0FF314FF0FF3058
:1058800000F00CB8ADF1080C6DE904CE20F094FDE9
:10589000DDF804E0DDE9022304B07047704700BF83
:1058A00010B5054C237833B9044B13B10448AFF35A
:1058B00000800123237010BD850400240000000037
:1058C0005866020808B5034B1BB103490348AFF300
:1058D000008008BD0000000088040024586602080B
:1058E00080B500AF00F0D4F809F018FF00F04EF8D2
:1058F00016F0BAF816F0C4F916F052FA16F0B4FA27
:1059000016F0C6FE17F074F917F042FA17F064FAB1
:1059100016F016FF17F0B0FB17F0FEFB17F034FD82
:1059200016F008FB16F03EFD00F034F917F08CFC81
:1059300017F0DAFC17F03CFC17F0B4F917F0BAF8DE
:10594000114811F01EF81AF0BFF81BF0F9F81DF01D
:10595000BBFE1CF0AFFF20F0C9FC1FF067F91FF081
:10596000CFFF1CF0F7F920F027FC074811F009F8E9
:105970001EF000F815F042FA13F090F815F062FAF4
:1059800020F06AFC00BFFDE7A404002480B59CB0B1
:1059900000AF07F124034C2200211846FBF726FD37
:1059A0003B1D202200211846FBF720FD022009F0B4
:1059B000E1FC00233B60354B9B69344A23F44043B0
:1059C0009361324B9B6903F440433B603B6800BFEB
:1059D0002E4B9B6903F40053B3F5005FF8D12B23E2
:1059E0007B624FF48033BB6201233B6340237B63C4
:1059F0000123BB630123FB630223BB640223FB641B
:105A000002233B6528237B650123BB650423FB65DB
:105A100002233B660C237B660023BB660023FB66E8
:105A200007F12403184603F0D5FD0346002B01D0EF
:105A300000F0AAF83F237B600323BB600023FB60D8
:105A400008233B6140237B614023BB614FF48063AB
:105A5000FB6140233B623B1D0321184604F094F98F
:105A60000346002B01D000F08FF84FF48022002174
:105A7000002004F03FFB4FF480220021012004F0BD
:105A800039FB00BF7037BD4680BD00BF00480258DB
:105A900080B584B000AF3B4600221A605A609A601D
:105AA000DA6009F0C3FD01233B7000237B704FF0E7
:105AB00000637B6013233B7200237B720123BB7264
:105AC0000523FB7200233B7300237B730123BB730D
:105AD0000023FB733B46184609F0E0FD01237B7071
:105AE0004FF000537B601A233B72EE237B7203233B
:105AF000FB720023BB733B46184609F0CFFD02231F
:105B00007B703B46184609F0C9FD03237B703B467A
